:106B0000B0320020756C0000716C0000716C0000E8
:106B10000000000000000000000000000000000075
:106B2000000000000000000000000000716C000088
:106B30000000000000000000D17F00001580000070
:106B4000716C0000716C0000716C0000716C0000D1
:106B5000716C0000716C0000716C0000716C0000C1
:106B6000716C0000716C0000716C0000716C0000B1
:106B7000716C0000716C0000716C0000716C0000A1
:106B8000716C0000716C0000716C0000716C000091
:106B9000716C0000716C0000716C0000716C000081
:106BA000716C0000716C0000716C0000716C000071
:106BB000716C0000716C0000716C0000716C000061
:106BC000716C0000716C0000716C0000716C000051
:106BD000716C0000716C0000716C0000716C000041
:106BE000716C0000716C0000716C0000716C000031
:106BF000716C000010B540F20804C2F20004237862
:106C000063B940F20003C0F200032BB148F23C200C
:106C1000C0F2000000E000BF0123237010BDC04699
:106C200040F20003C0F2000310B54BB140F20C017A
:106C300048F23C20C2F20001C0F2000000E000BFB8
:106C400048F23C20C0F20000036803B910BD40F2D6
:106C50000003C0F20003002BF8D09847F6E7C046C7
:106C6000014A024B1A60704700093D0000000020F5
:106C7000FEE70000104A114B10B59A4205D00023E0
:106C80000F490E4A9A188A420ED300210D4B0E4A24
:106C900093420FD37F210D4B0D4A8B4393600D4BD5
:106CA00098470D4B9847FEE70348181800680433CF
:106CB0001060E6E702C3EBE73C8200000000002022
:106CC0000800002008000020AC2C0020006B000011
:106CD00000ED00E0918100008D80000010B5024BB6
:106CE0001860024B984710BD24000020F16C000092
:106CF00070470000054B1A68126812B9013A5A60D1
:106D000070471A68D268D2685268F8E728000020F5
:106D1000F7B50500124E134BB768F06801910430C7
:106D2000984734006B1C08D1019B33B13000F168E7
:106D30000D4B043110309847F7BDE3687D195D6055
:106D40000A4BAF4203D9606AE1680431F3E7206877
:106D5000E1680431984763689D42EDD26560EBE7D6
:106D600028000020DB7A0000957A0000AD7A000050
:106D700070B50F4C236C2BB9636C012BF9D90D4BFB
:106D80009847F6E70C4B9847636BDD680B4B281D63
:106D90009847E36B013BE363236C013B2364084B9F
:106DA0009847084C286BA0472800A047E1E7C04659
:106DB00028000020757F00008D7F0000DB7A000036
:106DC000A57F0000817E0000F0B5970085B001909E
:106DD000534C38000E000293A047050050B15420D8
:106DE000A047040018B105633EB972B6FEE728005B
:106DF0004C4B98470126764285E03A004A4BA52144
:106E000028009847236B3A1F9A1807239A430023B8
:106E100000921A00F15C3432A154F25C12B10133D9
:106E2000052BF6D1230000270A9D38331F70042D4F
:106E300000D90425231D1800E56265643B4EA76454
:106E40000393B04720001830B04705235D1B230093
:106E500050332461A5616462E764029A1F7001994E
:106E6000334B009898470B9B206003B11C60314D59
:106E7000314B9847EB6B314F0133EB63EB68002BE1
:106E800044D1EC60EB6B012B20D128002C4E443018
:106E9000B04728005830B04728006C30B047280071
:106EA0008030B04728009430B0472648B047264885
:106EB000B04738005030B04728002830B04728008D
:106EC0001030B0471F4B2B601F4B6B62BB6EE26AEA
:106ED0000133BB66E363FB6E9A4200D9FA66142362
:106EE000280053434430C018211D184B9847184BB5
:106EF00098477B6E012633B1EB68DA6AE36A9A42FF
:106F000001D2144B9847300005B0F0BD7B6E002BCA
:106F1000DCD1EB68E26ADB6A9342D7D8EC60D5E754
:106F2000217E0000817E0000F38100008F7A000046
:106F3000E57E0000280000208D7F0000A8000020D2
:106F4000797A0000D0000020E4000020957A00004B
:106F5000A57F0000757F000073B5104D00242B0045
:106F600074330193009423003C220D490D480E4ECA
:106F7000B04701280DD10D4B9847012809D172B6B1
:106F800001220B4B52425A6068669C60094B98473D
:106F900073BD431CFCD172B6FEE7C046A8000020BA
:106FA00002820000716D0000C96D0000957B000039
:106FB00028000020057F0000024A136F0133136789
:106FC0007047C046A8000020014B98687047C04633
:106FD00028000020324BF7B51A6F1E00002A58D146
:106FE000304B9A681C00013200929A606AB91B68A3
:106FF0001B680BB172B6FEE72368626A22606362A7
:10700000B36F0133B367284B98476368009A002732
:107010009A4204D323681B68ABB9013B6360E36801
:10702000DA6A142353431F4A9B185B6C012B00D967
:107030000127F36F0BB91D4B98471D4B1B6803B11C
:1070400001273800FEBD2368009ADB68DD686B68A5
:107050009A42E3D32B1D01931800164B9847AB6A55
:107060001BB12800134B18309847EB6AF26E93421D
:1070700000D9F3661422200053434430C018291D60
:107080000D4B9847E368EA6ADB6A9A42C2D301274C
:10709000C0E7DA6F00270132DA67044B9847CCE784
:1070A000A800002028000020F56C0000B58000003A
:1070B00028010020DB7A0000957A0000F7B5274C04
:1070C000236F0BB972B6FEE7254B9847236F013B40
:1070D0002367256F25B10024224B98472000FEBD71
:1070E000214EF36B002BF6D0236DB3B90DB11F4BBE
:1070F0009847E56F4DB101261D4B984708B11D4BD0
:107100001E60013D002DF7D1E5671A4B1B68002B6F
:10711000E1D0194B98470124DEE7E36D174FDD6896
:1071200028001830B8472B1D18000193B847EB6AA8
:10713000E26E934200D9E366142230005343443098
:10714000C018291D0E4B9847F368EA6ADB6A9A4219
:10715000CAD30122074B1A60C6E7C046A800002028
:107160008D7F0000A57F000028000020F56C000046
:10717000D56F000028010020757F0000DB7A000039
:10718000957A000070B505000C0008B972B6FEE7EC
:1071900009B972B6FEE7114B1E6F0EB172B6FEE76B
:1071A0000F4B98470F4B2A689868A418904205D255
:1071B000A24206D9A042B641764202E00126A2428E
:1071C000F8D92C601EB1201A0021074B9847074BB5
:1071D000984708B9064B984770BDC046A8000020E4
:1071E000B96F000028000020116D0000BD70000084
:1071F000757F000070B51E4D1E4B2A6F12B1012223
:107200001A6070BD1C4C1A60E3681C491B6B1A683D
:107210008A4208D15968914205D19A688A4202D1BE
:10722000DB68934204D0E068E168154B343198473D
:107230001426EB6E32005A430F495118486C88B13E
:10724000886CA21840684C328864904201D1426830
:107250008A6414225A4308495218926CD268E26038
:10726000EB66CEE70BB972B6FEE7013BE2E7C0463C
:10727000A80000202801002028000020A5A5A5A521
:10728000B180000010B50C0008B972B6FEE7054BDE
:10729000D968054B1831984701212000034B9847C6
:1072A00010BDC04628000020AD7A0000116D00001E
:1072B00070B50C00150008B972B6FEE7064BD96828
:1072C000064B183198470DB1012464422900200073
:1072D000034B984770BDC04628000020957A0000F7
:1072E000116D0000C368F7B5DD680DB972B6FEE731
:1072F0002B00144C18331800134F0193B847236F19
:10730000124ED3B92B1D18000193B847EA6AE36EF9
:107310009A4200D9E2661423300053434430C01827
:10732000291D0B4B9847F368EA6ADB6A00209A42F2
:1073300002D9084B01301860FEBD20000199503081
:10734000EFE7C046A8000020DB7A000028000020FC
:10735000957A000028010020034B9B6F0360034BCC
:107360009B6843607047C046A800002028000020AA
:1073700070B505000C0008B972B6FEE709B972B61F
:10738000FEE7114B9847114B69689A6823680026FD
:10739000581C10D00E482E68806F864202D00126FD
:1073A0008A4208D2521A9A4209D29B1A23602800B4
:1073B000084B98470026084B9847300070BD0023C3
:1073C00001262360F7E7C0468D7F000028000020DB
:1073D000A800002059730000A57F00000122014B86
:1073E0001A60704728010020044B01205A6E1AB120
:1073F000186F4342584140007047C046A800002023
:1074000070B5040008B9002070BD154DEB689842B6
:1074100001D072B6FEE7836C0BB972B6FEE7C26AA2
:10742000416C013B83648A42EDD0002BEBD1061DF9
:107430000C4B300098470522636CD21AA2610A4AAD
:10744000E362D16E8B4200D9D366280014256B43CA
:107450004430C0183100054B98470120D4E7C0469E
:1074600028000020DB7A0000A8000020957A0000A8
:1074700010B50400034B9847A46B034B9847604238
:10748000604110BD8D7F0000A57F000070B5160023
:10749000026C0400856B4AB9066810001EB9A0682A
:1074A000144B9847A6600135A56370BD124B66B9B1
:1074B000406898476368226C30009B18A26863603C
:1074C0009342F0D323686360EDE7C0689847236C6C
:1074D000E2685B422168D218E2608A4202D2A26866
:1074E000D318E3600020022EDDD12B005A1E9341F9
:1074F000ED1AD8E701740000E1810000F7B5846C53
:1075000001900A000CB972B6FEE7A16BE36B9942D9
:1075100001D372B6FEE7A16B00268B4212D9270079
:1075200001A9453720000A4B3D7898476DB2060007
:107530006B1C09D1636A2BB12000064B243098479D
:1075400000B101263000FEBD01356DB23D70F9E796
:107550008D740000E572000003001A6C10B508007D
:1075600052B1D9689C688918D960A14201D31968C1
:10757000D960D968014B984710BDC046E181000031
:10758000F8B5040026001A4F4536B84735786DB275
:10759000002D0EDCFF233370164EB047B84727008E
:1075A00044373D786DB2002D16DCFF233B70B047A9
:1075B000F8BDA36C43B1002120000F4B984708B1E0
:1075C0000E4B9847013DE2E7636A002BE2D02000B2
:1075D0000B4B24309847F2E72369002BE5D02000BD
:1075E000074B1030984708B1044B9847013DD9E745
:1075F0008D7F0000A57F0000FD740000DD7300009A
:10760000E572000070B504000D0008B972B6FEE71F
:10761000144B9847216CE36B22684B43D0185B1ADC
:10762000D318E3602300A06062600020FF2244338F
:10763000A0631A705A7065B9236933B120000A4BF0
:107640001030984708B1094B9847094B98470120DB
:1076500070BD2000074D1030A84720002430A847F7
:10766000F3E7C0468D7F0000E5720000757F0000E3
:10767000A57F0000797A0000F8B506000D0017001C
:1076800008B972B6FEE7080070430C4B54309847B7
:10769000040060B16DB92060094BE66325640121E7
:1076A00020009847230050331F700023A36420005C
:1076B000F8BD030054330360EEE7C046217E0000AE
:1076C00005760000F0B589B004000291059201939F
:1076D00008B972B6FEE7029B002B00D076E0036C7F
:1076E000002B00D172E072B6FEE7636A002B5ED019
:1076F00020003F4B2430984759E0059D15B9B84705
:10770000002059E016B906A83A4B9847B8473A4BBB
:107710009847039B98472200443213785BB20133A9
:1077200001D1002313702200453213785BB201337C
:1077300001D100231370B84705A906A82F4B98471D
:107740002F4E304D00283DD1039B9847A36B0393E8
:10775000E36B0493B847039B049A93422ED1200015
:1077600005991030284B98472000B047A84708B922
:10777000264B98470126264DA847A36BE26B03953D
:10778000244F934202D3019B022BB6D1224B019A84
:1077900002992000A56B9847A36C002BA5D0019BF4
:1077A000022B00D135B9019920001C4B984708B134
:1077B000164B9847B847012009B0F0BD2000B047EC
:1077C000A847D7E72000B047A84799E7019B022BBD
:1077D00002D1E36B012B09D1114B984700260028F9
:1077E000C9D1059E002EC6D072B6FEE772B6FEE77E
:1077F000E572000059730000B96F0000717300005A
:1078000081750000BD70000085720000757F00006A
:107810008D7F0000A57F00008D740000FD740000C6
:10782000E9730000F0B585B00400019117001E0057
:1078300008B972B6FEE7019BCBB9036CBBB172B657
:10784000FEE7002F37D001253D6003981C4B984779
:10785000280005B0F0BD636A6BB32000194B2430DB
:10786000984726E00135029B6DB21D7023E0022E81
:1078700002D1E36B012B20D1134B9847A36BE26B32
:107880000390934202D30025022EDED1230045331C
:1078900002931D7832006DB20C4B0199200098477D
:1078A0006B1CDFD1A36C002BD5D031002000084B1E
:1078B00098470028C5D10125C7E772B6FEE7C04644
:1078C000C57F0000E5720000BD7F00008D740000E0
:1078D000FD740000F0B587B004000191039208B96F
:1078E00072B6FEE7019B002B63D1036C002B60D0C6
:1078F00072B6FEE7039D15B9B84700204BE016B9F4
:1079000004A8314B9847B847304B9847029B98479B
:107910002200443213785BB2013301D1002313708B
:107920002200453213785BB2013301D1002313707A
:10793000B84703A904A8264B9847264F264D274E43
:1079400000282ED12000B84738B3200003992430F6
:10795000234B98472000A847B04708B9214B9847C8
:107960000126214DA847A36B029500931F4F002BC2
:10797000C0D01F4B019920009847009B013BA36397
:10798000236933B120001B4B1030984708B1154BC9
:107990009847B847012007B0F0BD2000A847B0477E
:1079A000DEE72000A847B0472000B8470028D7D01E
:1079B000A3E7114B984700260028D2D1039E002E42
:1079C000CFD072B6FEE7C04659730000B96F000011
:1079D000717300007174000081750000BD700000BB
:1079E00085720000757F00008D7F0000A57F00007C
:1079F00059750000E5720000E9730000002330B5FE
:107A0000064ADC00A21815681DB9044B5060E1500D
:107A100030BD0133082BF3D1FAE7C0466C2C0020AF
:107A200070B50400104B16000D0098472200443238
:107A300013785BB2013301D1002313702200453269
:107A400013785BB2013301D100231370074B9847C1
:107A5000A36B2BB92000320029002430044B984737
:107A60002000044B984770BD8D7F0000A57F00006B
:107A7000B1720000817500000300012208334360E9
:107A8000C360036100235242826003607047002399
:107A90000361704743689A684B608A609A685160D6
:107AA00099600368086101330360704703000A6846
:107AB00030B50833541C0BD103695A684A60916091
:107AC0008B605960036808610133036030BD230097
:107AD0005C682568AA42FAD2EFE7416882680369C8
:107AE0008A60826851605968884200D15A600022D9
:107AF00002611A68013A1A6018687047F7B50E4CAF
:107B00000E4B9847236801939BB92500261D300032
:107B10000B4F1835B8472800B847019A0C210520AB
:107B2000084BE66225639847206010B10649074B71
:107B30009847074B9847F7BD2C0100208D7F000028
:107B4000797A00007976000007820000FD79000054
:107B5000A57F000010B54160006191420CD8D21A97
:107B6000836901249A4205D2084B011D186B084B0A
:107B700098470024200010BD9A4202D20124994265
:107B8000F8D2024B011DD86AF1E7C0462C01002053
:107B9000AD7A00000A4B13B598470A4B1A680AB928
:107BA00072B6FEE734330193022350220093064954
:107BB00000230648064CA0470028F1D016BDC04659
:107BC000FD7A00002C0100200C820000957C000052
:107BD000C96D0000F0B5170085B006001A0008B99D
:107BE00072B6FEE70D4D2C6820007CB10191029722
:107BF000039605290CDC0A4B98470A4C00230A9A85
:107C0000022800D01A00286801A9A04705B0F0BDDD
:107C10002000002301A9044CF7E7C0462C010020F6
:107C2000E9730000C576000025780000F7B5154D12
:107C3000EB6A1A681AB92A6BEA622B63F7BDDB6834
:107C4000DC681E68271D104B38009847636A2000C7
:107C50009847E369012BEAD1A369F3189E4206D243
:107C6000636024613900E86A084B9847DFE7002128
:107C7000200000910B003200054CA0470028D6D10F
:107C800072B6FEE72C010020DB7A0000AD7A00001E
:107C9000D57B0000F0B589B0554DEB6A1C68002C0F
:107CA00000D0A1E001230293524F534B9847B847AD
:107CB000AB6B0600039700209E4202D24F4B9847C1
:107CC0000120AE634E4F002863D1029B002B51D19F
:107CD000B44253D8B847EB6ADB68DD68494B281DCE
:107CE0009847EB69012B11D1AB693200E1182800EC
:107CF0002300454EB04748B1029B22000093190073
:107D00002800424CA04708B972B6FEE76B6A28000B
:107D1000984740F21027364B0022186805A93C4BC3
:107D200098470028B8D0059B002BF4DB079C6369BB
:107D300013B1201D334B9847039B98472C4B0500EC
:107D40009B6B0293984201D22C4B9847284B9D6322
:107D5000059B092BDFD801229A4016003E401300F4
:107D6000B6BBC722134216D19B06D4D52000294B9F
:107D70009847D0E72B6B1A68504250410200A11B74
:107D80002868254B9847B8470028C2D1234B98470D
:107D9000BFE7B847BDE7069BA269200099182A00F3
:107DA000194D0293A8470028B5D0636A2000984770
:107DB000E369012BAFD1A369069A2000D21800967F
:107DC00033003100114CA0470028A4D172B6FEE761
:107DD0000699A16109B972B6FEE749192B002A007C
:107DE0002000094CA04796E7DB681C6800235AE78F
:107DF0002C010020C96F0000B96F00002D7C00002D
:107E0000BD700000DB7A0000557B0000D57B0000D0
:107E1000D5780000817E0000217A0000757F000087
:107E2000072370B50400184201D09C4308340F4B5F
:107E300098470F4B1A6822B91A0007210C328A435F
:107E40001A6042F6EF200B490025CA6FA41884423D
:107E500004D8A24202D21D68CC67AD18064B9847E1
:107E60000DB9064B9847280070BDC046B96F000099
:107E700068010020E82B0020BD700000AD800000EC
:107E800008B172B6FEE77047002382B00193064B3B
:107E90001B68013301D072B6FEE772B6019B002B5E
:107EA000FCD002B07047C046040000200000000073
:107EB0000B4A13681868203080F30988022080F389
:107EC0001488BFF36F8F3FBCAE4608BC04BC62B6DB
:107ED0001847C046C046C046C046C046C046C04619
:107EE0003400002010B58024031F64041C60043B90
:107EF00019600349043B1960143B40381A6010BDF7
:107F0000897E0000FF22124B1204196810B50A4343
:107F10001A60FF220024196812060A4340F2F41185
:107F20001A600C4A0C4B14601C600C4B1B68B3FBB2
:107F3000F1F30B49013B0B6007231360094B1C60F5
:107F4000094B9847094B9847094B9847200010BDAB
:107F500020ED00E010E000E018E000E0000000206C
:107F600014E000E004000020B17E0000F571000084
:107F7000897E00008022044B52051A60BFF34F8FA8
:107F8000BFF36F8F7047C04604ED00E072B6044A3D
:107F9000136801331360BFF34F8FBFF36F8F7047C8
:107FA00004000020044A13680BB972B6FEE7013BD7
:107FB000136003B962B6704704000020EFF310802D
:107FC00072B6704780F31088704700000000000010
:107FD000EFF309800E4B1A6820381060F0C0444659
:107FE0004D4656465F46F0C008B572B6FFF702F937
:107FF00062B60CBC116808681030F0C8A046A946EB
:10800000B246BB4680F309882038F0C81847C046FE
:108010003400002010B5074B9847074B04009847E1
:1080200018B18022054B52051A602000044B984776
:1080300010BDC046BD7F0000D56F000004ED00E01C
:10804000C57F00008022094B10B55A619A60084B29
:10805000084A01219A62C02212069A6247331A78AE
:1080600005488A431A70054B984710BD000200600E
:10807000003200408000004010E000E0DD6C0000B5
:108080008022014BDA6170470002006010B5044B9A
:108090009847044B9847044B9847002010BDC046B2
:1080A000616C0000458000003181000072B6FEE77F
:1080B00072B6FEE770470000642313B5019341F2E6
:1080C0001113984201D072B6FEE7074B9847009013
:1080D0006846C821054B9847002305481A0001A9A6
:1080E000044C0068A047F3E7C96F000085710000E9
:1080F000682C0020C576000037B5222810D1012554
:1081000000246D42074B2A00186801A9064B9847C6
:10811000019B642BF6D10020044B98470194F1E7B2
:1081200072B6FEE7682C0020D57800008180000040
:1081300037B50F4B00220421012098470D4B1860E2
:10814000A0B1002502233C2200930B4920330B4CA5
:1081500001950B48A0470123019500933C2241F271
:10816000111308490848A047084B9847FEE7C04646
:1081700079760000682C002014820000C96D000090
:10818000F980000017820000B9800000596F0000DC
:1081900070B500250E4B0F4CE41AA410A54209D16E
:1081A000002500F03BF80C4C0C4BE41AA410A5423F
:1081B00007D170BD064AAB009B181B689847013574
:1081C000ECE7064AAB009B181B6898470135EEE7C1
:1081D00028820000288200002C82000028820000F3
:1081E000002310B59A4200D110BDCC5CC4540133B9
:1081F000F8E703008218934200D1704719700133E9
:10820000F9E749444C4500546D725100546D722099
:10821000537663005278005458000000F8B5C04609
:10822000F8BC08BC9E467047216C0000F8B5C046FB
:0C823000F8BC08BC9E467047F56B0000CF
:08823C0000093D00AAAAAAAA4C
:0400000300006B008E
:00000001FF
